:10000000E07F0010CD0000000D0A00000F0A000084
:10001000110A0000130A0000150A00000000000089
:100020000000000000000000000000001F1C000095
:10003000211C000000000000231C0000251C000003
:10004000271C0000271C0000271C0000271C0000A4
:10005000271C0000C1160000271C0000271C000000
:10006000271C0000271C0000271C0000271C000084
:10007000271C0000271C0000271C0000271C000074
:10008000271C0000271C0000271C0000271C000064
:10009000271C0000271C0000271C0000271C000054
:1000A0000D1C0000271C0000271C0000271C00005E
:1000B000271C0000271C0000271C0000271C000034
:1000C000271C0000271C0000271C00000D490E4AB9
:1000D0000E4B9A423EBF51F8040B42F8040BF8E76E
:1000E00000200B490B4A91423CBF41F8040BFAE750
:1000F0000948804709488047094880470948004720
:10010000FEE700000035000000000010B8040010F9
:10011000B804001010100010551C0000291C00002D
:10012000030A0000ED07000010B5054C237833B931
:10013000044B13B10448AFF300800123237010BDBA
:10014000B804001000000000AC34000008B5064BF5
:100150001BB106480649AFF300800648036813B197
:10016000054B03B1984708BD00000000AC34000007
:10017000BC040010000000100000000008B5034897
:10018000034B9847034A044B1A6008BD0400001053
:10019000CD16000000400000E80400100D4B8189DE
:1001A0000360038A0C4A43600C4802EB4121016062
:1001B0007BB10B440A490A4493420A490A4B03D8CB
:1001C00003220A70052203E00A220A70082119702E
:1001D0001A717047EC04001000400000E8040010A1
:1001E00000C00700E40400107D0000100D4B092240
:1001F00030B51A7083890C490C4A01EB4323136014
:10020000028A0B4D9C1829448C4202D8036042603C
:1002100030BD0023037143718371C37101230372E5
:1002200030BD00BFE404001000400000E8040010EE
:1002300000C00700044B00221A7002221A71034A00
:10024000034B1A60704700BF7D00001000400000A3
:10025000E8040010044B00221A7002221A71034AAB
:10026000034B1A60704700BF7D0000100040000083
:10027000E804001008B5837A03F07F03212B1ED118
:10028000C37A013B052B1AD8DFE803F00305070CFE
:100290000E170B4B12E00B4B10E00B4B06220360CA
:1002A000002305E0094B09E0094B0122036000230C
:1002B000027143718371C37108BD064B984708BD35
:1002C0009D010000ED0100007D00001035020000DE
:1002D000E40400105502000070B5837A044603F070
:1002E0007F03212B39D1C37A022B2ED0032B02D0CE
:1002F000012B32D108E0194B194A1B79082B1370D6
:100300002BD1184B984770BD038A144DBBB1164EC4
:10031000164B3068A0F58040C00B984730681449F0
:100320004FF40072134B984728B9228A336813445C
:100330003360052307E006232B700A2303E0084BF4
:1003400006221A7008232B7170BD044B09221A7102
:10035000054B018A1A680A441A6070BD7D000010BE
:10036000E404001095190000E8040010BD06000028
:10037000EC040010FD0A0000034B1878B0F10803EC
:1003800058425841704700BFE404001008B50A4BBA
:100390001B78063B022B0DD8084B9847BFF34F8FB5
:1003A000074A084BD16801F4E0610B43D360BFF307
:1003B0004F8FFEE708BD00BFE40400109519000050
:1003C00000ED00E00400FA0507B500238DF80230C7
:1003D0008DF804308DF80330C0F3421300F01F0095
:1003E0008DF800308DF80100024B6846984703B045
:1003F0005DF804FB611E000008B5014B984708BD7D
:10040000C903000008B50A4600F01F030121994006
:10041000C0F34210014B984708BD00BFB11D00005A
:1004200008B50121014B984708BD00BF0504000035
:1004300008B50021014B984708BD00BF0504000026
:1004400008B5012100F01F039940C0F34210014B91
:10045000984708BDBD1D000008B5012100F01F032D
:100460009940C0F34210014B984708BDC91D0000D8
:1004700038B504460D46044B984720460DB1034B52
:1004800000E0034B984738BD210400004104000000
:100490005904000010B5064B0446C0F342109847BB
:1004A00004F01F04E04040F30000C0B210BD00BFE4
:1004B000D51D0000064B0004302240F4A060C3F8B4
:1004C0000822C3F81002D3F80022D206FBD57047E9
:1004D00000C00050084B0004202240F40070C3F814
:1004E0000822C3F81002D3F800229206FBD5024B73
:1004F000D3F81402C0B2704700C0005010229040E0
:10050000054B40F48070C3F80822C3F81002D3F8FA
:100510000022D206FBD5704700C0005010B504463B
:1005200072B6D020034B984744F08000024B9847A6
:1005300062B610BDB5040000FD04000010B504460D
:1005400072B6D820034B98472046034B984762B6B3
:1005500010BD00BFB5040000FD04000010B5044646
:1005600072B6F320034B98472046034B984762B678
:1005700010BD00BFB5040000FD04000010B5044626
:1005800072B6FE20034B98472046034B984762B64D
:1005900010BD00BFB5040000FD04000008B572B630
:1005A000FE20034B9847034BFE20984762B608BDD8
:1005B000B5040000D504000010B572B600F00F04B9
:1005C000C00940EA44042046034B98472046034BA9
:1005D000984762B610BD00BFB5040000D504000006
:1005E00072B600F00F03C00940EA4300012303FA8A
:1005F00000F0064BC3F83802D3F800229206FBD570
:10060000024BD3F8140262B6C0B2704700C000506B
:1006100010B50C4672B600F00F03C00940EA430063
:1006200040F04000034B98472046034B984762B682
:1006300010BD00BFB5040000FD04000008B572B68F
:10064000F220034B9847034BF220984762B608BD4F
:10065000B5040000D504000008B572B6FA20024BBC
:10066000984762B608BD00BFB504000008B5044B4A
:10067000984740F00100C0B2024B984708BD00BF48
:100680009D0500007D05000008B5034B9847034B0E
:1006900000F0FE00984708BD9D0500007D050000A4
:1006A00082B000230093009B834204D2009B0193FD
:1006B000009B0133F6E7019802B0704738B5C5B228
:1006C0000A4C05F001013220A04705F00201332059
:1006D000A04705F004013420A04705F008013520AB
:1006E000A0479C2005F01001A04738BD7104000010
:1006F00008B54C20014B984708BD00BF9504000089
:1007000008B5074B9847074B9847074B9847074B47
:10071000984708B9064BF9E7064B984708BD00BF54
:100720007D01000035190000F51900007903000073
:10073000211B000095190000F0B5204CADF5037D9C
:100740001F49204B002098471F48216801221F4B5A
:100750009847264600282ED14FF4007301934FF49A
:100760008044019D1848B5F5007F16D102A92A469C
:1007700001AB174FB84718B1164B134898471AE00A
:10078000A4F58040C00B144B98472046134B02A998
:100790002A469847019B1C44E3E70E4B9847B4F563
:1007A000804F08D90E4D0F4B286898472968019053
:1007B0000D4B306898470DF5037DF0BD84000010A7
:1007C000F4060010852C000022090010A52C000062
:1007D0000D2E0000F92F0000BD060000FD0A0000EC
:1007E0008800001011300000E930000073B56E4B36
:1007F0006E4C98474C20A0476D4B4C2098473220B8
:100800006C4DA0473220A8473320A0473320A8478B
:100810003420A0473420A8473520A0473520A847DA
:100820009C20A0479C20A8473620A0473620624E37
:10083000A84701213620B0473720A0473720A847D6
:1008400001213720B0474420A0474420A847012178
:100850004420B0474520A0474520A8470121452016
:10086000B0474620A0474620A84701214620B04770
:100870004720A0474720A84701214720B0474B20E9
:10088000A0474B20A84700214B20B0474B4B1F20CF
:1008900098474B4C032002214A4AA0474FF480530B
:1008A00000932646009B1BB1009B013B0093F9E798
:1008B0000623092008210722434CA047434B9847B1
:1008C00008B9434B9847434B984720B1424B984750
:1008D00018B1424B9847424B9847424CA0470028DA
:1008E000FBD1A0470028FCD13F4B98473F4D4048E3
:1008F000A847404B4FF480429A603F4B0122C3F817
:100900008020AA22C3F88C205522C3F88C20D3F86B
:100910008810394A11F00071F9D1AA23C2F8801069
:10092000C2F88C305523C2F88C30334BD3F8882072
:1009300012F08072F9D119684FF47A70C1F30B018B
:100940001960196841F4A0411960C3F80421C3F883
:100950000C21C3F8A021A847BFF35F8FBFF34F8FCF
:10096000BFF36F8F4FF48043D3F800D0D3F804F077
:1009700003200221134AB047A0470028FCD14FF4BE
:1009800080230193019B13B1019B013BF9E7BFF366
:100990004F8F184A194BD16801F4E0610B43D360C3
:1009A000BFF34F8FFEE700BF8D1F0000F90300006B
:1009B000310400002104000071040000BD060000A5
:1009C0004515000080841E00BD0B0000FD100000D6
:1009D00039070000F1060000731F00007F1F0000B0
:1009E000010700008D1500005D150000A106000044
:1009F000C0C62D0000ED00E000C00F400400FA0565
:100A00007047704700487047A1A16DB9FEE7FEE747
:100A1000FEE7FEE7FEE7000008B5014B984708BD7A
:100A2000F11FFF1F38B5044672B6064833254160F2
:100A3000C3600549054B056082600461984762B652
:100A400038BD00BF480900105C090010190A0000F9
:100A500010B5054B34241C6058609960DA60184664
:100A60000249034B984710BD480900105C0900106B
:100A7000190A000010B5054B32241C6058609960BB
:100A8000DA6018460249034B984710BD4809001028
:100A90005C090010190A000070B5054672B60424FE
:100AA0000F2C03D8230303F6FF7303E0E303A3F53E
:100AB000D023013B994218D20F2C85BF04F5FF3398
:100AC00003F5F9732303DB0399420A4E08D120464C
:100AD00021462A46B047204621462A46064B9847DB
:100AE000204621462A46B04702E001341E2CD7D1C9
:100AF00062B670BD750A0000510A00002DE9F04190
:100B00001B4E336803B930601A48002304689342CF
:100B100005D0194DCF5C2544EF540133F7E7046845
:100B20001C44B4F5007F04601ED1DFF85C8031689E
:100B3000D8F800004FF47A77104EB0FBF7F0104B66
:100B4000984730680A4D80B9D8F800002346B0FBBA
:100B5000F7F02968084A0B4CA047306828B9054BC4
:100B600028601860BDE8F0810020BDE8F08100BF7A
:100B7000D4040010D8040010700900105C090010A3
:100B8000990A0000250A00008C00001001310023A2
:100B900070B5891A054618468B420DDA9C18A5EBEC
:100BA000E406F67B04F0070446FA04F404F00104BA
:100BB0009C4001332043EFE770BD000010B51C4698
:100BC000064B98472046064B98472046054B9847CA
:100BD000054B20469847054B1C8010BDBD110000F9
:100BE000F90300002104000041040000780B00100C
:100BF000034B1868D0F1010038BF0020704700BFD8
:100C0000800B0010014B1868704700BF800B00106C
:100C10004FF40070704700002DE9F0411A4F1B4B54
:100C20000446B7F900000D46984744F04000C0B2B2
:100C3000174CA047280EA047C5F30740A047C5F3AF
:100C40000720A047E8B2A0479520A0474FF4805561
:100C5000FF20A04710F0800F0D4E804608D1B7F955
:100C600000000C4B9847FF20B0474046BDE8F0819C
:100C7000013DEDD1B7F90000064B9847FF20B04782
:100C80004FF0FF30BDE8F081780B001059040000F0
:100C9000151300004104000038B54FF480540021C2
:100CA0003720074DA84729200021A84718B9054B30
:100CB0000120186038BD013CF1D1204638BD00BF8D
:100CC000190C00007C0B001070B5154E154B044636
:100CD000B6F900000D46984744F04000C0B2124CEF
:100CE000A047280EA047C5F30740A047C5F307203B
:100CF000A047E8B2A0479520A0474FF48055FF20B9
:100D0000A04703060AD5013DF9D1B6F90000074B0B
:100D10009847FF20044B98474FF0FF3070BD00BF4D
:100D2000780B001059040000151300004104000066
:100D30002DE9F843214D224B0646B5F900009847AE
:100D4000204C7A20A0470020A0470020A047002088
:100D5000A0470020A0479520A0474FF48057A84601
:100D6000FF20A04710F0800F164D81461AD1FF20BA
:100D7000A84704063460FF20A84744EA00443460D2
:100D8000FF20A84744EA00243460FF20A8472043FE
:100D900030600D4BB8F900009847FF20A84748463F
:100DA000BDE8F883013FDBD1B8F90000064B984756
:100DB000FF20A8474FF0FF30BDE8F883780B001004
:100DC00059040000151300004104000037B54FF42A
:100DD0008054002137200D4DA84729204FF0804135
:100DE000A84758B90A4B01A89847019B13F0804FB8
:100DF000084B14BF03200220186004E0013CE8D136
:100E0000044B20461C6003B030BD00BF190C00002D
:100E1000310D00007C0B001073B51C4E1C4BB6F955
:100E2000000098471B4C4820A0470020A047002006
:100E3000A0470120A047AA20A0478720A0474FF441
:100E40007A15FF20A04703068DF8000011D4012574
:100E5000FF20A0470DF805000135052DF8D1B6F9A2
:100E600000000D4B9847FF200A4B98479DF8000063
:100E70000AE0013DE5D1B6F90000074B9847FF2095
:100E8000044B98474FF0FF3002B070BD780B001054
:100E900059040000151300004104000010B546F28B
:100EA000A810114B9847114B1024B3F90000104BB8
:100EB0009847FF200F4B9847013CFAD12046214626
:100EC0000D4B984701280AD10C4B9847012801D1B6
:100ED0000B4B02E0052802D10A4B984710BD0A4B84
:100EE00020461C6010BD00BF49110000780B0010A7
:100EF0004104000015130000190C0000190E000039
:100F0000CD0D0000990C00007C0B00102DE9F04184
:100F1000114C8046114BB4F900000F469847264605
:100F2000FF200F4CA047FE28FAD10025BD424FF00C
:100F3000FF0004DAA04708F805000135F6E7A047EE
:100F4000FF20A047B6F90000064B9847FF20A047B6
:100F50000020BDE8F08100BF780B001059040000AC
:100F6000151300004104000038B50C4B05461B6802
:100F70005A1E012A01D8490202E0032B18BF0021A2
:100F80001120074B9847044628B928464FF40071B2
:100F9000044B984700E00124204638BD7C0B00102C
:100FA000190C00000D0F00002DE9F041194E1A4BED
:100FB0008046B6F900000F46184C9847FE20A0471F
:100FC0000025BD4204DA18F80500A0470135F8E70E
:100FD000FF20A047FF20A047FF20A04700F01F00F0
:100FE000052809D0B6F900000D4B98470B4BFF20A0
:100FF00098470120BDE8F081FF20A0470028FBD0E2
:10100000B6F90000064B9847044BFF209847002094
:10101000BDE8F081780B00105904000015130000A2
:101020004104000038B50C4B05461B685A1E012AC6
:1010300001D8490202E0032B18BF00211820074BFA
:101040009847044628B928464FF40071044B984746
:1010500000E00124204638BD7C0B0010190C000074
:10106000A90F00007FB509200021204B984708B147
:10107000002038E0684610211D4B98470028F7D122
:1010800068467F217E221B4CA04700BB1A4B1B6881
:10109000032BEDD049213E226846A0473121054669
:1010A0002F226846A0475022064653216846A04793
:1010B0000236012202FA00F3B24005FB0220B3F52A
:1010C000007F33BF58435B0A5843400A0BE00128B6
:1010D000CED1094B1B68032BCAD16846452130226B
:1010E000A0470130800204B070BD00BFC90C0000F1
:1010F0000D0F00008D0B00007C0B001010B50C4C88
:10110000002323600B4B984708B901240DE00A4BDC
:1011100098474FF400712060084B10209847044610
:101120000028F2D10648074B9847204610BD00BF63
:10113000800B00109D0E000065100000190C0000CF
:1011400000093D0049110000184A194BB2FBF0F2AA
:101150001A60184B1B6843B3B0F5C07F0AD81A69F0
:10116000FE221A611A681968D2B21A601A6842F42B
:101170007F4218E01049884205D91A6902221A6193
:101180001A68D2B20FE002F0FE01186919611968FD
:101190001868C9B2196019681869B2FBF0F2013A0F
:1011A000120292B20A4319681A60704740787D01B2
:1011B0008C0B0010840B001020BCBE002DE9F04108
:1011C00001270D4600F01F011446DFF84481064652
:1011D00007FA01F1C0F342103A46C04705F01F017B
:1011E000C5F3421007FA01F10022C04704F01F01C5
:1011F0003A46C4F3421007FA01F1C047092E3E4AAD
:1012000022D1082D60D1072C5ED13C4B1360A3F591
:101210008043196821F47C211960196841F4282160
:10122000196003F55023D3F8A81121F44011C3F835
:10123000A811D3F8A81141F48011C3F8A811D3F86C
:10124000C41041F480612BE0122E2CD1112D3BD122
:101250000F2C39D12A4B1360A3F5B823196821F05C
:1012600040411960196841F000411960596821F046
:101270003C015960596841F02801596003F5502339
:10128000D3F8AC1121F44061C3F8AC11D3F8AC1120
:1012900041F48061C3F8AC11D3F8C41041F40011DB
:1012A000C3F8C41012E0382E0ED1372D0CD1342CD7
:1012B0000AD1134B13491360CB6843F4703343F4E2
:1012C0004073CB60104BDBE700231360136883B1DE
:1012D0001A6807221A605A6800225A6042F2107097
:1012E0000A4B9847044B1B685A68596842F002023F
:1012F0005A60BDE8F08100BF840B0010000003407D
:101300000080084000C0024000C00F4049110000AA
:10131000B11D0000074B1B6853B1DA689107FCD57B
:101320009A689860DA685207FCD59868C0B270472E
:1013300018467047840B001037B5324B0446012223
:10134000002002291A708DF804008DF803002E4B3E
:1013500004D1032C3BD118602C480DE029B9012C95
:1013600035D103221A602A4A20E00A2909D10B2C20
:101370002DD1022018602748274B8DF802201860D5
:1013800029E00F2904D1102C21D11A602348F3E75A
:10139000192905D11A2C1AD103221A601C48EBE72F
:1013A000402909D1412C12D11A601C4A1A4B1A60EB
:1013B00002238DF802300EE0482904D1492C06D1D1
:1013C00002221A60D7E79C2901D19D2CE3E74FF058
:1013D000FF321A6014E0C1F34213684601F01F01A6
:1013E0000F4D8DF800308DF80110A847C4F342135B
:1013F000684604F01F048DF800308DF80140A847BE
:1014000003B030BDB00F0010A00D001000C00040B0
:1014100000C0094000800940AC0F001000000140EE
:10142000611E0000404A002330B513703F4A5168E6
:101430005360116813603E4A51685360116813602D
:101440003C4B1B68032B47D8DFE803F0021324351D
:10145000394BD3F8C42042F00802C3F8C420D3F8B3
:10146000A82122F0C00242F04002C3F8A8210522C0
:1014700033E0314BD3F8C42042F01002C3F8C4204B
:10148000D3F8A82122F4407242F48072C3F8A82154
:10149000062222E0284BD3F8C42042F08072C3F821
:1014A000C420D3F8AC2122F4403242F48032C3F895
:1014B000AC21072211E0204BD3F8C42042F0007287
:1014C000C3F8C420D3F8AC2122F4402242F4802295
:1014D000C3F8AC21082200E0FF22184B03241B684C
:1014E000197B41F080011973002119711C701D7B5B
:1014F00005F07F051D73412583F8285007251D72CF
:101500001C7383F8241093F8301041F0800183F8A5
:10151000301051B2012302F01F0203FA02F2084B0D
:10152000490943F8212030BD9C0D0010A40D001086
:10153000940B0010A00D001000C00F40AC0F001065
:1015400000E100E010B5034B144698472046024BDB
:10155000984710BD3913000025140000094B1B6883
:10156000032B0ED8DFE803F002040608202205E072
:10157000402203E0802201E04FF48072024BC3F866
:1015800080207047A00D001000E100E0064B1B68B2
:101590001B7D5B0606D4054B18685B68C01AC0F358
:1015A0000800704700207047AC0F0010A40D001019
:1015B000F8B51A4D012128680022194EB047286855
:1015C000184B98470128FAD0144B1868164B1A6824
:1015D00059684A40C2F308026AB15A685C68511CF3
:1015E00059601A44127AD2B202705A685968C2F32A
:1015F00008025A60EAE71A685C680C4F5440C4F36A
:1016000008042CB9286801212246B0473C70F8BD77
:10161000012128680A463970B047F8BDAC0F0010A8
:10162000091F0000671F0000A40D00109C0D001092
:1016300030B50E4B19680B7DDB0716D50C4B0878BF
:101640005C681A68C0B201326240C2F30802002A24
:10165000F1D01A681D68541C1A441C6010721A6874
:101660001868C2F308021A60E5E730BDAC0F00103D
:10167000940B001038B50D4C0D4B2068984700F0C6
:101680000E05062D06D120680A4B984710F09E0FD4
:101690000AD0FEE700F00600042801D1064B984767
:1016A000022D01D1054B984738BD00BFAC0F00108B
:1016B0005B1F0000551F000031160000B11500002F
:1016C00008B5014B984708BD75160000014B18601E
:1016D000704700BF08100010054A002353701370B4
:1016E000044A0221117153719371D371704700BF85
:1016F000C60F0010B40F0010F0B51B4A1B4B9489A5
:101700001B68250A0021E4B2187828B35E78AE423F
:1017100020D16E1E042E0BD8DFE806F003060A095E
:10172000090000210C4603E05C79214600E099782D
:10173000A1420ED1022D136008BF5B880A490CBF7D
:101740004B604860138A52689A420BDD064A536028
:10175000F0BD01310344D7E701231071507190713E
:10176000D0711372F0BD00BFB40F0010081000104C
:1017700008B50120014B984708BD00BF3D0500009A
:10178000044B01211970044B002219715A719A718E
:10179000DA717047C60F0010B40F001008B5044886
:1017A000837A13F07C0F01D0024B984708BD00BF2D
:1017B000B40F0010D902000010B51C4C00202146C7
:1017C00008221B4B984708282ED1A4F10A000023B9
:1017D0004372184B44F80A3C038A4360837A13F03F
:1017E0007C0F1FD1C27A092A19D8DFE802F0051D43
:1017F000181D1807111D13150F4B0EE080890F4B94
:10180000C0B2984700210A460D4B8020984710BD72
:101810000C4B02E00C4B00E00C4B984710BD0C4BFE
:10182000984710BD0B4B984710BD00BFBE0F00106E
:10183000211A0000C60F0010D91600001D05000077
:101840009D1A0000F91600008117000071170000B2
:10185000111B00007502000070B5174C637A53BB72
:10186000A37A6568DE091CD095B1412D34BF2A46A4
:101870004022124B802021689847636822681B1A17
:10188000024463602260B3B9402814D1267270BD4F
:10189000237A83B1802029462A46084B984725722F
:1018A00070BD45B9054B802029462A46984701233B
:1018B0006372034B984770BDB40F00109D1A00006F
:1018C0009D17000010B5164C637A1BBBA07A6268A6
:1018D000C00911D1134B52B12168984763689842EF
:1018E00015DC1B1A636023681844206010BD104685
:1018F0001146984798B10AE04AB910461146094B7B
:10190000984720B901236372074B984710BD074BD6
:10191000984710BD002006494022024B984710BD51
:10192000B40F0010211A00009D170000111B0000C9
:10193000C60F001010B5134BD3F8C42042F000427C
:10194000C3F8C420104BD3F8F42F42F01202C3F8AE
:10195000F42FD3F8F82F122AFBD10C4C636823F034
:1019600070536360636843F0A0536360084B98470B
:10197000236923F440332361236943F480232361E3
:1019800010BD00BF00C00F4000C0005000C00240AA
:101990008906000008B5014B984708BD890600007C
:1019A00010B572B6124B4FF48072C3F8082200F0E3
:1019B0000F02C00940EA420001228240D3F84442AB
:1019C0001443C3F84442C3F84802C3F84C1262B649
:1019D0000748D0F80012064BC905FAD54FF48071BC
:1019E000C3F80812D3F834120A43C3F8342210BDE6
:1019F00000C0005010B5074B0C22C3F80422064C5F
:101A000080204021A04700204021A047034B984759
:101A100010BD00BF00C00050A11900006D060000FD
:101A200070B572B600F00F04194BA40044F0010425
:101A3000C3F828421D46D5F82042154B2405FAD597
:101A4000D3F82052C5F3090595421EDC15B10024D8
:101A500023460EE0D3F8183213E013F0030604BF58
:101A60000B4CD4F81842032ECC544FEA142403D064
:101A700001339342F1DB04E0054ED6F82862F60705
:101A8000F6D4044B9847044B984762B6284670BD7D
:101A900000C00050B90500003D060000F8B515462D
:101AA00072B600F00F02174B920042F00202C3F828
:101AB0002822C3F82452B5B10024124AD2F82832A1
:101AC0009B0713D5AC4211DA0B199E785F78360468
:101AD00046EA07260F5DDB783E4346EA0363C2F819
:101AE0001C320434E9E7C3F81C522C46064B9847D5
:101AF000064B9847BFF36F8F62B6AC42B4BF204627
:101B00002846F8BD00C00050B90500005906000085
:101B100008B500208021014B984708BD1106000040
:101B200037B5304BD3F80022D20744BF0122C3F8A7
:101B30000822D3F800321B0713D52A4B0822C3F81A
:101B40000822294B9847C5060BD5284B9847284CA7
:101B500080204021A04700204021A0470220254BA3
:101B60009847204BD3F80022540738D5D3F8304299
:101B7000E00710D50020204B9847410701D51F4BA7
:101B800003E010F0010002D01D4B984703E06946C6
:101B900008221C4B9847A20706D5174B8020984770
:101BA000C30701D4184B984734F0030304D10D4BFD
:101BB0000422C3F8082212E008250324094BD3F8B5
:101BC00030321D4205D0E00140EA6400C0B20A4B49
:101BD00098470134202C4FEA4505EFD1E7E703B0E1
:101BE00030BD00BF00C000509D0500008D03000007
:101BF000A11900005D050000E1050000B917000013
:101C0000C5180000211A000059180000684620F08D
:101C100007018D4601B5BDE8014085467047FEE7E6
:101C2000FEE7FEE7FEE7FEE708B5064B9847064BE2
:101C300098470648064B984708BDFEE7FEE7FEE7D3
:101C4000FEE7FEE7E11D0000151E00000000000099
:101C5000551E0000374B2022C3F8A021D3F8A02145
:101C6000920603D5D3F8A0215006FBD50322C3F872
:101C700004210022C3F8A8210120C3F8AC211322BB
:101C8000C3F80C01AA21C3F884205522C3F88C1094
:101C9000C3F88C20C3F88000C3F88C10C3F88C20E4
:101CA000244AD2F888305901FAD50323C2F880308B
:101CB000AA23C2F88C305523C2F88C30D2F8881091
:101CC0001C4B11F0407FF9D02322C3F8A420AA2195
:101CD00055220120C3F8AC10C3F8AC20C3F8A00013
:101CE000C3F8AC10C3F8AC20124BD3F8A8205205AF
:101CF000FAD50322C3F8A020AA22C3F8AC205522AB
:101D0000C3F8AC20D3F8A8100A4A11F4407FF9D0E8
:101D1000094BC2F8C4300023C2F8C83145F23A0377
:101D20001360064B064A1B6823F0404323F07F03F1
:101D30009360704700C00F400884208000000000BE
:101D400000ED00E004280CD8064B53F8203043B1D6
:101D500012B11A68114302E01A6822EA01011A68F6
:101D600019607047F0330000042805D8034B53F87E
:101D700020300BB19A699961704700BFF0330000C1
:101D8000042805D8034B53F820300BB1DA69D96128
:101D9000704700BFF0330000042805D8034B53F808
:101DA000200010B14069704700207047F0330000F8
:101DB00008B5014B984708BD451D000008B5014B0B
:101DC000984708BD691D000008B5014B984708BD3C
:101DD000811D000008B5014B984708BD991D000002
:101DE0000B4B4FF0FF310122C3F88010C3F8842061
:101DF000C3F88011C3F88421002303F1604201334A
:101E000002F561420021202B82F80013F5D17047C2
:101E100000E100E00D4B4FF020620D495A600022B6
:101E20009A60D9601A615A6102F16041013201F58C
:101E30006D410020202A054B0876F5D14FF0FF3286
:101E400058629A62DA621A63704700BF00ED00E0E0
:101E50000000FA05014B9860704700BF00ED00E0FC
:101E600070B5427884780F2A88BF103A4FEA420250
:101E70004FF0030505FA02F504FA02F203784FF079
:101E800003064FEA430388BF01339B0003F18043FD
:101E900003F53033196821EA05010A431A604278D4
:101EA000C5780F2A88BF103A4FEA420206FA02F6B6
:101EB00005FA02F2037812494FEA430388BF01335F
:101EC00051F8234024EA0604224341F823200278F3
:101ED000417800790B4B012807D100FA01F153F842
:101EE00022400C4343F8224070BD012000FA01F16A
:101EF00053F8220020EA010043F8220070BD00BF21
:101F000040C0024068C00240062996BF0F4B002324
:101F100033F81130012A0E4A05D19042426843EA53
:101F200002030FD10FE090426FEA030305D142682C
:101F300040F28F3111400B4005E0416840F207321A
:101F40000A40134042684360704700BF04340000F9
:101F500000000140007DC0B27047806820F0300072
:101F60008005800D7047007D80F04000C0F3801038
:101F700070474FF080431878C0F3800070474FF0EF
:101F800080431A7802F0FB021A70704772B64FF065
:101F90008043AA221A7255221A7262B6704710B58F
:101FA0000023934203D0CC5CC4540133F9E710BD45
:101FB0002DE9F843D0F82A5004468D420E4602D14E
:101FC0000020BDE8F883037913B9002EF8D022E091
:101FD00000F12E08164F407841462A460123B847A3
:101FE000B94610B10120BDE8F883D4F81A20D4F81E
:101FF0001E30207113449D42E7D2E778012FE4D9C7
:10200000D4F81A3060781D4441462A460123013F26
:10201000C847FFB2F2E7607804F12E01324601238F
:10202000044DA8470028DDD1C4F82A60BDE8F88334
:10203000693200003D32000008B5036873B11A78B8
:1020400062B1D9888288914208D15878044B984768
:1020500010F0010F0CBF0020032008BD092008BDAF
:1020600025320000CA7E8B7E032843EA022305D175
:10207000487D0A7D42EA002243EA0243184670473F
:1020800038B504460A46407804F12E0101231C4D60
:10209000A84780BB94F82C3294F82D2243EA022200
:1020A000184B12B29A4228D194F8662094F86730FF
:1020B000120442EA036294F864301A4394F86530DB
:1020C00042EA0322104B22F07F429A4216D094F843
:1020D000820094F88320000440EA026094F8802093
:1020E000104394F8812040EA022020F07F40C01A7B
:1020F00018BF012038BD032038BD022038BD00BF05
:102100003D32000055AAFFFF464154002DE9F04141
:10211000154602681378303B092B05D854783A2CC1
:1021200002D10232026000E0002300220A60002B8C
:1021300040F06A81BD4B1C68002C00F068810C6087
:10214000237873B16078BA4B9847C60709D4002D3D
:1021500000F0608110F0040F0CBF00200A20BDE8E1
:10216000F081002020706070B24B9847C10700F1E9
:10217000548115B1420700F1538120460021AE4D34
:10218000A847012817D194F8F03113B90D20BDE804
:10219000F08194F8F66194F8F731360446EA036664
:1021A00094F8F43120461E4394F8F53146EA0326AC
:1021B0003146A84700E00026032800F034810028BB
:1021C000E4D194F83A2094F8393043EA0223B3F585
:1021D000007FDBD194F8450094F8443053EA0020A6
:1021E0000DD194F8540094F85530000440EA03608F
:1021F00094F85230184394F8533040EA032094F88E
:102200003E50C4F81A006B1E012BE570BED894F83E
:102210003B10A1700029B9D04B1E0B42B6D194F8E7
:102220003F3094F8402043EA022213072281ADD1C7
:1022300094F8427094F8413053EA07230DD194F892
:10224000503094F851701B0443EA076394F84E70C1
:102250003B4394F84F7043EA072394F83D8094F889
:102260003C7057EA082891D005FB00FC08EB1217D8
:102270006744BB428AD3DB1BB3FBF1F3002B85D051
:1022800040F6F5718B4206D94FF6F575AB428CBF1F
:102290000325022500E001250233374406EB08013F
:1022A000032DC4F81630C4F82670C4F81E1014D1DB
:1022B000002A7FF46BAF94F85C2094F85D10120450
:1022C00042EA016294F85A109B000A4394F85B10AA
:1022D00042EA0122C4F8222011E0002A3FF456AF5E
:1022E000022D4FEA430218BFD218614418BF03F011
:1022F0000103C4F822100CBF134603EB520303F290
:10230000FF13B0EB532FFFF441AF4FF0FF33A37334
:10231000E37323746374032D4FF00003A372E3721D
:10232000237363735DD1637194F85F2094F85E301A
:10233000607843EA02223244C4F8122004F12E01EC
:1023400001233E4EB04700284BD194F82C3294F82C
:102350002D2243EA02223A4B12B29A4241D194F81A
:10236000302094F83130120442EA036294F82E309F
:102370001A4394F82F3042EA0322324B9A4230D16A
:1023800094F8142294F81532120442EA036294F885
:1023900012321A4394F8133242EA03222A4B9A4229
:1023A0001FD194F81C3294F81D221B0443EA0263E7
:1023B00094F81A22134394F81B2243EA0223C4F828
:1023C0000A3094F8183294F819221B0443EA026385
:1023D00094F81622134394F8172243EA0223C4F810
:1023E0000E301A4A00201388257001339BB22071E9
:1023F0001380E38084F82A0084F82B0084F82C00F2
:1024000084F82D00BDE8F0810B20BDE8F0810C20A0
:10241000BDE8F0812846BDE8F0810320BDE8F081E9
:102420000A20BDE8F0810120BDE8F081E004001041
:10243000253200000D320000812000003D320000F6
:1024400055AAFFFF5252614172724161DC040010D3
:1024500070B5314B0021044698470346002B5AD1F2
:102460002278032A4FD16279002A4CD084F82A308E
:1024700084F82B3084F82C3084F82D3004F12E01B0
:102480000025CD540133B3F5007FF9D1552384F8ED
:102490002C32AA2384F82D32522384F82E3084F86B
:1024A0002F30612384F8303084F81532D4F80E30A0
:1024B000412284F8312084F81422C3F3072284F8DF
:1024C000163284F817221A0C1B0E84F81932D4F82D
:1024D0000A3084F81822C3F30722722084F81A32D3
:1024E00084F81B221A0C1B0E84F8120284F81302C3
:1024F00084F81C2284F81D326078D4F8122001235D
:10250000064EB0476571002160780A46044B984733
:10251000003018BF012070BDB11F000069320000FB
:1025200095320000D0F816300239023B99423DBF87
:102530008278D0F8263002FB01300020704700007E
:1025400001292DE9F04104460D4666D9D0F8163030
:10255000994262D20378022B29D0032B3BD0012B66
:1025600057D101EB5106D0F81E102D4F01EB56212B
:10257000B84700284DD1D4F81E10C6F30803013621
:102580002344204601EB562193F82E80B8470028BB
:102590003FD1C6F30806344494F82E00EB0748EA0E
:1025A00000204CBF0009C0F30B00BDE8F081D0F85B
:1025B0001E101B4B01EB1521984750BB6D0005F415
:1025C000FF7563192C4493F82E3094F82F0043EADA
:1025D0000020BDE8F081D0F81E10114B01EBD511A1
:1025E0009847B0B9AD0005F4FE75631993F8310052
:1025F00093F830202E335B78000640EA02402C44EA
:1026000040EA032094F82E30184320F07040BDE8D3
:10261000F0814FF0FF30BDE8F0810120BDE8F0818E
:10262000B11F000070B50D46C180816804460129C4
:1026300001D1022070BD0368D3F816209142F8D270
:1026400099B91A78032A02D1D3F8221069B9002265
:1026500022736273A273E2731A89AA42E9D9D3F88A
:10266000223003EB1513236119E09E783601B54241
:1026700020680ED30F4B9847431C014618D0012801
:10268000D7D92368D3F816309842D2D2AD1BADB259
:10269000EDE7E160084B984700EB151020612368D7
:1026A00005F00F0503EB45152E356561002070BD63
:1026B000012070BD412500002525000010B5084B04
:1026C000C1880446984750B920682169054B98474E
:1026D00028B96369E5221A70236801221A7110BDB6
:1026E00025260000B11F000001292DE9F041044614
:1026F0000D46164676D9D0F81630994272D2037834
:10270000022B3AD0032B4AD0012B66D101EB5107A3
:10271000D0F81E10DFF8D48001EB5721C047002805
:102720005CD1C7F3080315F001052344F2B206D0CB
:1027300093F82E1001F00F0141EA0212D2B283F891
:102740002E20D4F81E10013701232371204601EBFF
:102750005721C047002841D1C7F30807274415B1C6
:10276000C6F3071606E097F82E30C6F3032623F0CB
:102770000F031E4387F82E6030E0D0F81E101B4B6D
:1027800001EB1521984748BB6D0005F4FF756319EF
:1027900083F82E60C6F3072683F82F601EE0D0F87A
:1027A0001E10124B01EBD5119847B8B9AD0005F4D6
:1027B000FE75631993F83120120602F07042164339
:1027C000C6F3072283F82E6083F82F20320C360ED2
:1027D00083F8302083F8316000E002200123237168
:1027E000BDE8F0810220BDE8F08100BFB11F00000C
:1027F000F8B505460F4641B9D0F80A607EB1D0F869
:1028000016309E4228BF01260AE0234B9847012834
:102810003FD9D5F8163098423CD33E4600E0012619
:102820003446D5F8163001349C4204D3012E01D829
:102830000020F8BD022428462146174B984748B18E
:10284000411C02D14FF0FF30F8BD012821D0B44225
:10285000E7D1EDE7284621466FF070420F4EB047B2
:10286000A8B95FB9D5F80E30C5F80A405A1C0CD08B
:10287000013BC5F80E3001236B7106E0284639464E
:102880002246B0470028EDD001E02046F8BD0128DF
:10289000D8D00120F8BD00BF41250000E926000086
:1028A0002DE9F047C68804460136B6B20F4616B980
:1028B0000420BDE8F0870369002BF9D016F00F085B
:1028C00061D1C16801330361006819B90389B3425A
:1028D000EED958E08278013A12EA161253D1314B00
:1028E00098470128054602D80220BDE8F087421C1F
:1028F00002D10120BDE8F0872068D0F816309D4253
:102900003BD3002FD4D0E168274B984705460028D9
:1029100044D00128E8D0431CEBD0244F206800218C
:10292000B847B9460028E4D123682E3300271F5446
:102930000130B0F5007FF9D1D4F800A02946504607
:102940001B4B9847CAF82A002368FAB2997891423B
:102950000ED901221A7120680021C84701370028CA
:10296000C7D12368D3F82A200132C3F82A20EBE725
:10297000D3F82A108A1AC3F82A20E560206829466D
:102980000B4B984720612368E68003EB481808F159
:102990002E08C4F814800020BDE8F0870720BDE8A9
:1029A000F08700BF41250000F1270000B11F0000A3
:1029B000252500002DE9F0410B7804462F2B0E460B
:1029C00001D05C2B00D10136002525726572A572FD
:1029D000E57233781F2B4ED8204629465A4B98472C
:1029E00025756575A575E575BDE8F0815C2B42D050
:1029F000A56900232022EA5401330B2BFAD10020D1
:102A00008446082102460CF1010C07EB0C0616F86F
:102A1000013C202B36D8202B8CBF00230423002818
:102A200074D02878E52804BF05202870082904BF41
:102A30009200D2B202F00301012902F00C0208BF99
:102A400043F01003042A08BF43F00803EB7220464A
:102A500000213D4B984760B3A369DB7A00284AD137
:102A60005A076FD46169CB7ADB064CD52368187896
:102A7000364B9847A060337837462F2B06F1010676
:102A8000B4D1F8E72F2BC6D05C2BC4D02E2B52D05C
:102A900088423BD21E0604D52D4E803BF35C42F0AB
:102AA0000302DFF8B88018F8016F96B39E42FAD19E
:102AB0002CE020682169274B98470028CCD1626917
:102AC0001378B3B1D17A01F0080101F0FF0359B9CD
:102AD000A569D15C0133E81810F8010C884203D1D4
:102AE0000B2BF6D10020B7E7204600211A4B984760
:102AF000B1E70420B0E7042824D113F0040F08BF85
:102B00000520BDE8F0810520BDE8F0810620BDE884
:102B1000F081A3F14106192E02D842F0020207E02B
:102B2000A3F16106192E03D8203B42F00102DBB26B
:102B30002B54013067E70829E8D192000846D2B249
:102B40000B2160E7BDE8F08125260000652000002C
:102B500012340000B11F0000A128000091340000D1
:102B600070B50021144B04469847054610BB2068F9
:102B70002169124EB0470546E0B963691B78E52B21
:102B800005D023B1204601210D4B9847EDE7206881
:102B90002169B047054668B960692B460022C254D6
:102BA0000133202BFAD10B22064BA16998472368E9
:102BB00001221A71284670BD25260000B11F0000B1
:102BC000A12800009F1F000010B5042304462169BE
:102BD000A1B12068104B9847D0B962691378B3B19E
:102BE000E52B04D02E2B02D0D37A1B0712D520461A
:102BF00000210A4B984758B90346E8E718464BB1FD
:102C0000002222746274A274E274184610BD04207B
:102C10000346F5E710BD00BFB11F0000A12800006A
:102C2000012970B504460D4626D9D0F816309942D0
:102C300022D2D4F816309D4205D2204629460F4BA9
:102C40009847064608B9002070BD012814D0411CE1
:102C500010D0204629460022094B984768B9D4F87D
:102C60000E305A1C04D00133C4F80E3001236371B6
:102C70003546DEE7012070BD022070BD4125000011
:102C8000E926000048B9064A136803B1187009B173
:102C900000230B701160002070470B20704700BFAD
:102CA000E00400102DE9F0438DB001911646054671
:102CB000002800F092800023037043708370C3707B
:102CC00005A901A802F01E02494B9847002840F0D0
:102CD0008B8002AB0B9305A80199464B98470A9C41
:102CE00010B9002C08BF062016F01C0F06F01F07B5
:102CF00043D048B1042802D105A83F4B984747F07C
:102D000008070A9C30B16FE0E37A13F0110F6AD123
:102D1000730764D43E0739D5384B9847C0F307236F
:102D20000026A073E373030C000E2374E672607434
:102D3000DDF8148026776677A677E67798F80000A6
:102D40002F4B214698470123A676E67626756675B1
:102D500088F804300646C8B140463146294BD8F8B9
:102D60002A90984700283FD10598013EC0F80A6094
:102D70004946254B984748B136E0002834D1E37ADC
:102D8000D8062ED4B10701D5DA072CD4059E3B070F
:102D9000D6F82A3048BF47F02007EB612C62AF71AC
:102DA0003078174B214698472861A37FE27F1B04A8
:102DB00043EA0263227F00201343627F287243EAC2
:102DC0000223EB606872A872E87228766876A876AB
:102DD000E8762E60F388AB8006E0092004E0082046
:102DE00002E0042000E007200DB0BDE8F08300BF42
:102DF0000D210000B5290000612B0000050A00002C
:102E000065200000212C0000B11F00002DE9F84FC3
:102E100098460023C8F800304B4B04460F46164630
:102E20009847002840F08E80A379190600F186802B
:102E3000DA0740F18680E568A368ED1AAE4238BF34
:102E40003546002D77D0A368C3F30802002A49D184
:102E5000206890F802B00BF1FF3B0BEA532B1BF0FC
:102E6000FF0B0AD10BB9206902E06169374B984723
:102E7000012809D9431C42D06061D4F800A06169DF
:102E80005046334B984720B9A37963F07F03A37171
:102E900054E06E0A00EB0B0922D09AF8023006EBE0
:102EA0000B029A4288BFCBEB03069AF80100394621
:102EB0004A46F3B2DFF8A4C0E04700BB21680B79B3
:102EC00063B1D1F82A30C9EB0300B04206D207EB58
:102ED00040202E314FF400721E4B984776021FE0BF
:102EE000C4F81890A6682068C6F30806C6F50076F0
:102EF000A169194BB54238BF2E46984730B1A37926
:102F0000012063F07F03A371BDE8F88FA1682368F7
:102F1000C1F30801194438462E3132460D4B98470B
:102F2000A36837443344A360D8F80030AD1B334462
:102F3000C8F8003085E72846BDE8F88F0220BDE8D4
:102F4000F88F0720BDE8F88F3920000041250000E8
:102F5000252500009F1F0000B11F00003D3200002A
:102F600070B5214B054698470646002839D1AB7904
:102F70009B0636D52868E9691C4B9847064680BBF6
:102F80002C6AE37A43F02003E372EB682377EB6863
:102F9000C3F307236377EB681B0CA377EB681B0E67
:102FA000E3772B69C3F30722A3761B0C23751B0A57
:102FB000E27663750E4B9847C0F30723A075E3755F
:102FC000030C000EA674E67423766076AB790122BA
:102FD00023F02003AB712B681A712868054B9847C2
:102FE0000646304670BD00BF39200000B11F00000A
:102FF000050A00005124000010B5044B0446984710
:1030000018B920706070A070E07010BD612F0000D2
:1030100070B594B014AB43F84C0D184606A90122C4
:10302000284B98470446002849D103AB0C9306A8C7
:103030000199254B98470446002840D10B9E36B194
:10304000F37A13F0010F0CBF0024072400E00624DC
:10305000069B314618781D4B98470546002C2ED10B
:10306000F37ADB0619D5012813D90DA806A91C226D
:10307000174B98470DA80221164B0F959847044609
:10308000E8B90DA8144B9847044620B1042804D091
:1030900015E0022413E0072411E006A80F4B98471F
:1030A000044660B925B906980D4B9847044606E0DA
:1030B000069829460B4B984704460028F3D0204633
:1030C00014B070BD0D210000B5290000652000007E
:1030D0009F1F000025260000C92B0000BD26000010
:1030E00051240000212C000070B59AB01AAB43F8AF
:1030F000640D0E4618460CA901223B4B9847002848
:103100006FD10C9B0CA81393019903AB374C12930E
:10311000A047002865D11199002955D006A80B3188
:103120001522334DA84713A80CA91C22A84713A8A1
:103130003146A047002849D0042852D113A82D4B6E
:10314000984700284DD1189C132204F10D000DF171
:103150001A01A8479DF8183043F02003E3720C9D34
:1031600001232B71159B0E9A9A4233D0E37ADB062A
:1031700030D52146204B28789847204B01462846D9
:103180009847014620B31E4B284698470C9B40BBEE
:1031900093F84F202E2A1DD11A78032A159A04D1AC
:1031A000D3F822108A4208BF0022C2F3072183F815
:1031B0006820120C83F86220120A83F8632001222F
:1031C00083F869101A7105E004200AE0082008E07D
:1031D000022006E00CA80B4B984710B90C980A4B3C
:1031E00098471AB070BD00BF0D210000B52900003E
:1031F0009F1F0000612B00006520000025250000B6
:10320000B11F0000BD2600005124000008B528B9F8
:10321000034B9847003018BF012008BD012008BDAE
:10322000FD10000008B528B9034B9847003018BFBF
:10323000012008BD012008BDF10B000070B50E464D
:1032400015461C4658B944B129463046054B013C49
:103250009847E4B205F50075F5E7204670BD0420F7
:1032600070BD00BF690F000070B50E4615461C46C4
:1032700058B944B129463046054B013C9847E4B261
:1032800005F50075F5E7204670BD042070BD00BF50
:103290002510000010B51446C8B9042904D8DFE889
:1032A00001F0130A050C130001200EE0094B9847AA
:1032B00080B2208004E0084B00E0064B9847206075
:1032C000003018BF012000E00020C0B210BD042073
:1032D00010BD00BF110C0000050C0000024B13B123
:1032E000024800F005B8704700000000FD32000001
:1032F000014600200246034600F018B838B5094DD3
:10330000094C641BA41018BF05EB840505D0013CD3
:1033100055F8043D9847002CF9D1BDE8384000F03D
:10332000CFB800BFCC340000D0340000F0B5274C3B
:1033300085B026680746D6F84841002C40D065681D
:103340001F2D1EDD224818B94FF0FF3005B0F0BD2B
:103350004FF4C870039102920193AFF30080039978
:103360000446029A019B0028EED0D6F8485100206E
:10337000256060600546C6F84841C4F88801C4F875
:103380008C013FB96B1C00200235636044F82510A6
:1033900005B0F0BD0126AE4004EB8500C0F88820E2
:1033A000D4F88821022F42EA0602C4F88821C0F826
:1033B0000831E7D1D4F88C311E43C4F88C61E1E7C1
:1033C00006F5A674C6F84841B9E700BFA834000066
:1033D000000000006669726D776172652E63757218
:1033E000006669726D776172652E62696E00000019
:1033F00000C0092020C0092040C0092060C0092069
:1034000080C00920010002000400080080000001C3
:103410000002809A90418E418F8045454549494937
:103420008E8F9092924F994F555559999A9B9C9D8A
:103430009E9F41494F55A5A5A6A7A8A9AAABAC2117
:10344000AEAFB0B1B2B3B4B5B6B7B8B9BABBBCBD24
:10345000BEBFC0C1C2C3C4C5C6C7C8C9CACBCCCD14
:10346000CECFD0D1D2D3D4D5D6D7D8D9DADBDCDD04
:10347000DEDFE0E1E2E3E4E5E6E7E8E9EAEBECEDF4
:10348000EEEFF0F1F2F3F4F5F6F7F8F9FAFBFCFDE4
:10349000FEFF222A2B2C3A3B3C3D3E3F5B5D7C7F6E
:1034A000000000004300000090000010F8B500BFCD
:1034B000F8BC08BC9E467047DD3200004D0100009C
:1034C000F8B500BFF8BC08BC9E4670472901000053
:1034D000000000000035000000000010B8040000EB
:0434E000580B000085
:1034E400E8CBFF7F010000003CE7FF7FB0B0B08075
:0834F40060E7FF7F010000000A
:10350000000000001201000200000040501D156084
:1035100040000102000109021B0001010080FA09BC
:1035200004000000FE01020309210BF40100020166
:1035300001040309041A0353006D006F006F007447
:1035400000680069006500570061007200650012A4
:103550000353006D006F006F007400680069006520
:10356000001A0353006D006F006F0074006800695B
:103570000065002000440046005500000000F401F2
:1035800000020000E1330000D4330000000E2707E2
:10359000000000007C030010E40300104C04001045
:1035A000000000000000000000000000000000001B
:1035B000000000000000000000000000000000000B
:1035C00000000000A4340000000000000000000023
:1035D00000000000000000000000000000000000EB
:1035E00000000000000000000000000000000000DB
:1035F00000000000000000000000000000000000CB
:1036000000000000000000000000000000000000BA
:1036100000000000000000000000000000000000AA
:10362000000000000000000000000000000000009A
:103630000000000000000000010000000000000089
:103640000E33CDAB34126DE6ECDE05000B0000004E
:10365000000000000000000000000000000000006A
:10366000000000000000000000000000000000005A
:10367000000000000000000000000000000000004A
:10368000000000000000000000000000000000003A
:04000003000000CD2C
:00000001FF
